:020000040000FA
:100000000C9462000C948A000C948A000C948A0070
:100010000C948A000C948A000C948A000C948A0038
:100020000C948A000C948A000C948A000C948A0028
:100030000C948A000C948A000C948A000C948A0018
:100040000C944B030C948A000C9419030C94F30247
:100050000C948A000C948A000C948A000C948A00F8
:100060000C948A000C948A000000000024002700F1
:100070002A0000000000250028002B0000000000DE
:1000800023002600290004040404040404040202DA
:100090000202020203030303030301020408102007
:1000A0004080010204081020010204081020000012
:1000B0000008000201000003040700000000000027
:1000C0000000950311241FBECFEFD8E0DEBFCDBFE7
:1000D00011E0A0E0B1E0EAE0FCE002C005900D9282
:1000E000A834B107D9F722E0A8E4B1E001C01D921D
:1000F000AD35B207E1F710E0C2E6D0E004C02197C9
:10010000FE010E94FD05C136D107C9F70E942204F5
:100110000C9403060C94000096E0899FD0011124F2
:10012000A251BE4F90967C936E935F9791E091960B
:100130009C939197E0915B02F0915C0290915A023E
:10014000992339F0309751F0811108C080910A024B
:100150000994309719F05C968C91FACF0895CF925C
:10016000DF92EF92FF920F931F9396E0899FF00129
:100170001124E251FE4F11A2278D30A1213031050B
:1001800051F178F02230310509F451C023303105A6
:1001900009F452C01F910F91FF90EF90DF90CF9024
:1001A00008956623B9F361E070E00E948C002FB7D8
:1001B000F89480914D0190914E01A0914F01B09122
:1001C00050012FBF8093460290934702A0934802AC
:1001D000B0934902DFCF9FB7F894C0904D01D09003
:1001E0004E01E0904F01F09050019FBF00914602F8
:1001F000109147022091480230914902C01AD10A59
:10020000E20AF30A009158021091590230E020E00E
:100210000C151D052E053F0550F462E070E01F919E
:100220000F91FF90EF90DF90CF900C948C006111B4
:10023000B1CF63E070E0F3CF70E060E0F0CFAF9259
:10024000BF92CF92DF92EF92FF920F931F93CF93C3
:10025000DF936C017B018B01040F151FEB015E0125
:10026000AE18BF08C017D10759F06991D601ED91BA
:10027000FC910190F081E02DC6010995892B79F759
:10028000C501DF91CF911F910F91FF90EF90DF900B
:10029000CF90BF90AF900895FC01538D448D252FD2
:1002A00030E0842F90E0821B930B541710F0CF9610
:1002B000089501970895FC01918D828D981761F042
:1002C000A28DAE0FBF2FB11D5D968C91928D9F5F59
:1002D0009F73928F90E008958FEF9FEF0895FC0138
:1002E000918D828D981731F0828DE80FF11D858DEB
:1002F00090E008958FEF9FEF0895FC01918D228D7E
:10030000892F90E0805C9F4F821B91098F73992702
:10031000089581E591E00E947D0121E0892B09F497
:1003200020E0822F089580E090E0892B29F00E9440
:10033000890181110C9400000895FC01A48DA80F7F
:10034000B92FB11DA35ABF4F2C91848D90E0019617
:100350008F739927848FA689B7892C93A089B18937
:100360008C91837080648C93938D848D981306C0D8
:100370000288F389E02D80818F7D80830895EF923C
:10038000FF920F931F93CF93DF93EC0181E0888F4F
:100390009B8D8C8D98131AC0E889F989808185FF1F
:1003A00015C09FB7F894EE89FF896083E889F989C1
:1003B00080818370806480839FBF81E090E0DF91C3
:1003C000CF911F910F91FF90EF900895F62E0B8D16
:1003D00010E00F5F1F4F0F731127E02E8C8D8E11D1
:1003E0000CC00FB607FCFACFE889F989808185FF38
:1003F000F5CFCE010E949D01F1CFEB8DEC0FFD2FCB
:10040000F11DE35AFF4FF0829FB7F8940B8FEA89F2
:10041000FB8980818062CFCFCF93DF93EC01888D01
:100420008823B9F0AA89BB89E889F9898C9185FD6F
:1004300003C0808186FD0DC00FB607FCF7CF8C91FD
:1004400085FFF2CF808185FFEDCFCE010E949D0117
:10045000E9CFDF91CF910895833081F028F4813086
:1004600099F08230A9F008958730A9F08830C9F05A
:100470008430B1F4809180008F7D03C08091800032
:100480008F7780938000089584B58F7784BD089519
:1004900084B58F7DFBCF8091B0008F778093B000C3
:1004A00008958091B0008F7DF9CFCF93DF93282FEF
:1004B00030E0F901E255FF4F8491F901E656FF4F14
:1004C000D491F901EA57FF4FC491CC23A1F08111D7
:1004D0000E942C02EC2FF0E0EE0FFF1FE458FF4FBC
:1004E000A591B491EC91ED2381E090E009F480E0D6
:1004F000DF91CF91089580E090E0FACF862F0C94A1
:1005000055021F93CF93DF93282F30E0F901E25576
:10051000FF4F8491F901E656FF4FD491F901EA5754
:10052000FF4FC491CC23A9F0162F81110E942C02F9
:10053000EC2FF0E0EE0FFF1FEE58FF4FA591B491A6
:100540008FB7F894EC91111108C0D095DE23DC939D
:100550008FBFDF91CF911F910895DE2BF8CF862FAB
:10056000642F0C948102CF93DF9390E0FC01E65658
:10057000FF4F24918A579F4FFC0184918823C9F033
:1005800090E0880F991FFC01E859FF4FA591B491A5
:10059000FC01EE58FF4FC591D49161110DC09FB77A
:1005A000F8948C91209582238C938881282328832A
:1005B0009FBFDF91CF910895623051F49FB7F894B7
:1005C0003C91822F809583238C93E8812E2BEFCF53
:1005D0008FB7F894EC912E2B2C938FBFEACF862FF8
:1005E000642F0C94B3021F920F920FB60F92112436
:1005F0002F933F934F935F936F937F938F939F932B
:10060000AF93BF93EF93FF9381E591E00E949D012B
:10061000FF91EF91BF91AF919F918F917F916F91DA
:100620005F914F913F912F910F900FBE0F901F90B0
:1006300018951F920F920FB60F9211242F938F933C
:100640009F93EF93FF93E0916101F09162018081AC
:10065000E0916701F091680182FD1BC0908180915B
:100660006A018F5F8F7320916B01821741F0E091D7
:100670006A01F0E0EF5AFE4F958F80936A01FF9177
:10068000EF919F918F912F910F900FBE0F901F9020
:1006900018958081F4CF1F920F920FB60F921124FC
:1006A0002F933F938F939F93AF93BF9380914D016F
:1006B00090914E01A0914F01B091500130914C01A9
:1006C00023E0230F2D3758F50196A11DB11D20936E
:1006D0004C0180934D0190934E01A0934F01B09334
:1006E00050018091480190914901A0914A01B09137
:1006F0004B010196A11DB11D8093480190934901C2
:10070000A0934A01B0934B01BF91AF919F918F91FC
:100710003F912F910F900FBE0F901F90189526E8D4
:10072000230F0296A11DB11DD2CF10925401109239
:10073000530188EE93E0A0E0B0E0809355019093E0
:100740005601A0935701B09358018CE191E090932A
:1007500052018093510185EC90E090935E0180936B
:100760005D0184EC90E09093600180935F0180ECE8
:1007700090E0909362018093610181EC90E090930E
:1007800064018093630182EC90E090936601809312
:10079000650186EC90E09093680180936701109268
:1007A0006A0110926B0110926C0110926D0110920F
:1007B000F0011092F4011092F3011092F5018EE213
:1007C00091E09093EF018093EE01EAE0F2E0108275
:1007D000148213821582369682E0E634F807B9F760
:1007E00084E091E0909351028093500280E091E088
:1007F000909353028093520284E08093540280933A
:10080000550288E091E090934F0280934E028AE077
:1008100090E0909357028093560284EF91E090937A
:1008200059028093580210925C0210925B0210925F
:100830004A0210924B0210924C0210924D021092FA
:100840005A020895789484B5826084BD84B581602D
:1008500084BD85B5826085BD85B5816085BD80918B
:100860006E00816080936E00109281008091810003
:1008700082608093810080918100816080938100FB
:10088000809180008160809380008091B1008460BD
:100890008093B1008091B00081608093B00080911E
:1008A0007A00846080937A0080917A0082608093DD
:1008B0007A0080917A00816080937A0080917A003A
:1008C000806880937A001092C100E0916101F091FC
:1008D000620182E08083E0915D01F0915E0110820F
:1008E000E0915F01F09160018FEC808310926901CB
:1008F000E0916501F091660186E08083E0916301FB
:10090000F0916401808180618083E0916301F091C6
:100910006401808188608083E0916301F0916401CB
:10092000808180688083E0916301F091640180811F
:100930008F7D8083412C512C3201439422242A94B0
:10094000322C50E0C52E50E0D52E51E050935A0283
:100950008FB7F89440914D0150914E0160914F0135
:10096000709150018FBF80914A0290914B02A091EB
:100970004C02B0914D02481B590B6A0B7B0B8091C6
:10098000560290915702B0E0A0E084179507A607A1
:10099000B70708F017C1C0E080915402C81760F48F
:1009A000E0915002F0915102EC0FF11D62E0808164
:1009B0000E94B302CF5FF0CF912C80915502981620
:1009C00008F05FC0092D10E0E0915202F09153024F
:1009D000E00FF11F61E080810E94B302E0915202BA
:1009E000F0915302E00FF11F60E080810E948102CC
:1009F000D301C201092C04C0880F991FAA1FBB1F75
:100A00000A94D2F75C017C01E094F094812C8091EF
:100A100054028816F8F4C82DD0E0E0915002F0910D
:100A20005102EC0FFD1F80810E9455022496CC0FCD
:100A3000DD1FC251DE4F892B41F4888199818A29BB
:100A40009B29998388838394E2CF888199818E2121
:100A50009F21F7CFE0915202F0915302E00FF11F76
:100A600061E080810E948102809152029091530244
:100A7000080F191F60E0F80180810E94B30293946F
:100A80009CCFCEEED1E0FE01878D90A1892B21F481
:100A9000148E368E258E11A2369652E0EA32F50774
:100AA00099F710E080915402181708F053C000E045
:100AB000E12EF12CEE0CFF1CC7018A509E4F7C01E9
:100AC00020915502021708F043C0F701608171813F
:100AD000002E02C0769567950A94E2F7129F900166
:100AE0001124200F311DEEEEF1E080E0458D568D92
:100AF0002417350709F47FC08F5F36968A30B1F727
:100B000060FF24C0EEEEF1E090E080E0448D411102
:100B100018C0E0914E02F0914F02E20FF31F4081A6
:100B200056E0589FF001599FF00D1124E251FE4FFD
:100B3000448F368F258F10A2178E61E00E94AF0080
:100B400005C0019636968A30910501F70F5FB8CF40
:100B50001F5FA8CF80E099A19111892F269692E07E
:100B6000CA32D907C1F79FB7F89440914D0150910F
:100B70004E0160914F01709150019FBF40934A0216
:100B800050934B0260934C0270934D028823D1F036
:100B900080910F028823B1F080910D0290910E0296
:100BA000019781F4C0910A02C1110FC0C114D10490
:100BB00009F4CBCE0E948901882309F4C6CE0E9495
:100BC0000000C3CE10925A02F1CF40E150E064E33E
:100BD00071E081E591E00E941F016C2F81E591E0B9
:100BE0000E94BF0142E050E065E471E081E591E0E0
:100BF0000E941F01DBCF6170A1CFEE0FFF1F059098
:100C0000F491E02D0994F894FFCF06070809020338
:100C100004053738392F3435362A3132332D6330D5
:100C20003D2B00000000BF011F014C010C027D01A3
:100C30005B016F0100000000EF02AF027E026275EF
:100C400074746F6E207072657373203A2020000DEB
:020C50000A0098
:107E0000112484B714BE81FFF0D085E080938100F7
:107E100082E08093C00088E18093C10086E0809377
:107E2000C20080E18093C4008EE0C9D0259A86E02C
:107E300020E33CEF91E0309385002093840096BBD3
:107E4000B09BFECF1D9AA8958150A9F7CC24DD24C4
:107E500088248394B5E0AB2EA1E19A2EF3E0BF2EE7
:107E6000A2D0813461F49FD0082FAFD0023811F036
:107E7000013811F484E001C083E08DD089C08234E0
:107E800011F484E103C0853419F485E0A6D080C0E4
:107E9000853579F488D0E82EFF2485D0082F10E0AE
:107EA000102F00270E291F29000F111F8ED06801E7
:107EB0006FC0863521F484E090D080E0DECF843638
:107EC00009F040C070D06FD0082F6DD080E0C81688
:107ED00080E7D80618F4F601B7BEE895C0E0D1E017
:107EE00062D089930C17E1F7F0E0CF16F0E7DF06D8
:107EF00018F0F601B7BEE89568D007B600FCFDCFD4
:107F0000A601A0E0B1E02C9130E011968C91119780
:107F100090E0982F8827822B932B1296FA010C0160
:107F200087BEE89511244E5F5F4FF1E0A038BF0790
:107F300051F7F601A7BEE89507B600FCFDCF97BE46
:107F4000E89526C08437B1F42ED02DD0F82E2BD052
:107F50003CD0F601EF2C8F010F5F1F4F84911BD097
:107F6000EA94F801C1F70894C11CD11CFA94CF0C13
:107F7000D11C0EC0853739F428D08EE10CD085E9AC
:107F80000AD08FE07ACF813511F488E018D01DD067
:107F900080E101D065CF982F8091C00085FFFCCF94
:107FA0009093C60008958091C00087FFFCCF809118
:107FB000C00084FD01C0A8958091C6000895E0E648
:107FC000F0E098E1908380830895EDDF803219F02E
:107FD00088E0F5DFFFCF84E1DECF1F93182FE3DFCA
:107FE0001150E9F7F2DF1F91089580E0E8DFEE27F6
:047FF000FF270994CA
:027FFE00040479
:00000001FF
