:100000000C9462000C948A000C948A000C948A0070
:100010000C948A000C948A000C948A000C948A0038
:100020000C948A000C948A000C948A000C948A0028
:100030000C948A000C948A000C948A000C948A0018
:100040000C9468070C948A000C9436070C941007E3
:100050000C948A000C948A000C948A000C948A00F8
:100060000C948A000C948A000000000024002700F1
:100070002A0000000000250028002B0000000008D6
:10008000000201000003040700000000000000005F
:1000900000000000230026002900040404040404D6
:1000A0000404020202020202030303030303010227
:1000B00004081020408001020408102001020408F6
:1000C0001020B20711241FBECFEFD8E0DEBFCDBF96
:1000D00011E0A0E0B1E0EEE1F7E102C005900D9281
:1000E000A83BB107D9F722E0A8EBB1E001C01D920F
:1000F000A139B207E1F710E0C2E6D0E004C02197D1
:10010000FE010E94870BC136D107C9F70E94020881
:100110000C948D0B0C940000AF92BF92CF92DF92A3
:10012000EF92FF920F931F93CF93DF936C017B01AC
:100130008B01040F151FEB015E01AE18BF08C0173D
:10014000D10759F06991D601ED91FC910190F081B0
:10015000E02DC6010995892B79F7C501DF91CF9173
:100160001F910F91FF90EF90DF90CF90BF90AF90D5
:100170000895FC01538D448D252F30E0842F90E0AD
:10018000821B930B541710F0CF9608950197089592
:10019000FC01918D828D981761F0A28DAE0FBF2F5B
:1001A000B11D5D968C91928D9F5F9F73928F90E0B1
:1001B00008958FEF9FEF0895FC01918D828D981720
:1001C00031F0828DE80FF11D858D90E008958FEF5D
:1001D0009FEF0895FC01918D228D892F90E0805C26
:1001E0009F4F821B91098F739927089582ED91E0AB
:1001F0000E94EA0021E0892B09F420E0822F089573
:1002000080E090E0892B29F00E94F60081110C9487
:1002100000000895FC01A48DA80FB92FB11DA35AA9
:10022000BF4F2C91848D90E001968F739927848F16
:10023000A689B7892C93A089B1898C918370806439
:100240008C93938D848D981306C00288F389E02DDA
:1002500080818F7D80830895EF92FF920F931F938B
:10026000CF93DF93EC0181E0888F9B8D8C8D981369
:100270001AC0E889F989808185FF15C09FB7F89475
:10028000EE89FF896083E889F989808183708064C1
:1002900080839FBF81E090E0DF91CF911F910F910C
:1002A000FF90EF900895F62E0B8D10E00F5F1F4F1B
:1002B0000F731127E02E8C8D8E110CC00FB607FC2A
:1002C000FACFE889F989808185FFF5CFCE010E94B8
:1002D0000A01F1CFEB8DEC0FFD2FF11DE35AFF4F1B
:1002E000F0829FB7F8940B8FEA89FB898081806246
:1002F000CFCFCF93DF93EC01888D8823B9F0AA8903
:10030000BB89E889F9898C9185FD03C0808186FDD0
:100310000DC00FB607FCF7CF8C9185FFF2CF80811F
:1003200085FFEDCFCE010E940A01E9CFDF91CF9189
:100330000895833081F028F4813099F08230A9F05B
:1003400008958730A9F08830C9F08430B1F48091E5
:1003500080008F7D03C0809180008F778093800024
:10036000089584B58F7784BD089584B58F7DFBCFC4
:100370008091B0008F778093B00008958091B00095
:100380008F7DF9CFCF93DF93282F30E0F901E45828
:10039000FF4F8491F901E255FF4FD491F901E656E0
:1003A000FF4FC491CC23A1F081110E949901EC2F41
:1003B000F0E0EE0FFF1FE057FF4FA591B491EC91D5
:1003C000ED2381E090E009F480E0DF91CF91089582
:1003D00080E090E0FACF1F93CF93DF93282F30E097
:1003E000F901E458FF4F8491F901E255FF4FD49190
:1003F000F901E656FF4FC491CC23A9F0162F8111C5
:100400000E949901EC2FF0E0EE0FFF1FEE58FF4F16
:10041000A591B4918FB7F894EC91111108C0D095C3
:10042000DE23DC938FBFDF91CF911F910895DE2BE8
:10043000F8CFCF93DF9390E0FC01E255FF4F24917A
:1004400086569F4FFC0184918823C9F090E0880F65
:10045000991FFC01E859FF4FA591B491FC01EE589A
:10046000FF4FC591D49161110DC09FB7F8948C9145
:10047000209582238C938881282328839FBFDF9136
:10048000CF910895623051F49FB7F8943C91822F38
:10049000809583238C93E8812E2BEFCF8FB7F89430
:1004A000EC912E2B2C938FBFEACF60E080918802D5
:1004B0000E94190261E0809187020E94EB01809105
:1004C00088020E94C2010197D1F360E08091870207
:1004D0000C94EB013FB7F8948091BD019091BE015F
:1004E000A091BF01B091C00126B5A89B05C02F3FC8
:1004F00019F00196A11DB11D3FBFBA2FA92F982F4A
:100500008827BC01CD01620F711D811D911D42E044
:10051000660F771F881F991F4A95D1F708958F920C
:100520009F92AF92BF92CF92DF92EF92FF926B01B8
:100530007C010E946A024B015C01C114D104E104F8
:10054000F104B9F00E946A02681979098A099B09C5
:10055000683E73408105910580F321E0C21AD108FD
:10056000E108F10888EE880E83E0981EA11CB11CFA
:10057000E4CFFF90EF90DF90CF90BF90AF909F902F
:100580008F900895089590E080E008950F931F9351
:10059000CF93DF93082F162FD42FC8E06D2F661F3F
:1005A0006627661F802F0E94EB01DD0F61E0812F1F
:1005B0000E94EB0160E0812F0E94EB01C15071F7B6
:1005C000DF91CF911F910F9108951F93CF93DF93E8
:1005D000182FC7E8D2E061E089810E94190261E02A
:1005E00089810E94EB0161E088810E94EB0160E05B
:1005F00089810E94EB0160E088810E94EB01412F1C
:1006000068818981DF91CF911F910C94C602BF92BE
:10061000CF92DF92EF92FF920F931F93CF93DF93CE
:10062000CDB7DEB728970FB6F894DEBF0FBECDBFAB
:1006300080919002882309F49EC084EE8093BC00D0
:100640008091BC0087FFFCCF80ED8093BB0084ECE1
:100650008093BC008091BC0087FFFCCF1092BB0050
:1006600084EC8093BC008091BC0087FFFCCF84EEBB
:100670008093BC008091BC0087FFFCCF81ED80930C
:10068000BB0084EC8093BC008091BC0087FFFCCF52
:10069000E9E8F2E080E992E034EC3093BC0020918C
:1006A000BC0027FFFCCF2091BB0021938E179F0732
:1006B000A1F784E88093BC008091BC0087FFFCCF49
:1006C00084E98093BC0040918902842F82958770D1
:1006D0005AE04F70859F400D112430918A02832F7C
:1006E000829587703F70859F300D112460918B0239
:1006F000262F2F70862F90E067FFCAC065FB8827E2
:1007000080F9FCE08F9F200D1124F0918C02509114
:100710008D0260918E0280918F02952F9295977035
:100720007AE05F70979F500D1124E62FE295E770F5
:100730006F70E79F600D1124982F92959F708F70B6
:10074000979F800D112490E08053984F9F838E8354
:10075000782F8F819F2F28960FB6F894DEBF0FBE9B
:10076000CDBFDF91CF911F910F91FF90EF90DF9060
:10077000CF90BF90089580ED0E94E5020E9455023F
:1007800061E0809188020E94190240E06091870236
:10079000809188020E94C6020E94550281ED0E944B
:1007A000E5020E945502E9E8CE2EE2E0DE2E10E0DE
:1007B00000E060E0809188020E94190277E0E72E55
:1007C000F12CB12C61E0809187020E94EB018091B5
:1007D00088020E94C20199270E2C01C0880F0A943A
:1007E000EAF7B82A60E0809187020E94EB0181E07D
:1007F000E81AF10838F7F601B1926F01809188028A
:1008000061E006301105D9F10E94190260E0809183
:1008100087020E94EB0160E0809188020E94EB0158
:1008200061E0809187020E94EB0160E08091870285
:100830000E94EB0160E0809188020E9419020F5F24
:100840001F4F0730110509F0B4CF61E08091880295
:100850000E94190260E0809188020E94EB0161E031
:10086000809187020E94EB0161E0809188020E94E2
:10087000EB0160E0809188020E94190224CF0E945F
:10088000190260E0809187020E94EB0161E0C4CF11
:1008900064E0959587956A95E1F78370859F200DB3
:1008A000112433CFCF93DF93CDB7DEB728970FB6A0
:1008B000F894DEBF0FBECDBF0E9407033A834B837F
:1008C00080E32A3028F0822F6AE00E94530B805D7B
:1008D000809315013AE0822F632F0E94530B905DA5
:1008E000909316018AE3809317012A8180E32A30CE
:1008F00020F0822F0E94530B805D809318013AE014
:10090000822F632F0E94530B905D909319018AE30D
:1009100080931A012B8180E32A3020F0822F0E94DD
:10092000530B805D80931B01822F6AE00E94530B62
:10093000905D90931C0110921D0185E191E0289635
:100940000FB6F894DEBF0FBECDBFDF91CF910895F3
:10095000CF93DF93CDB7DEB728970FB6F894DEBFFD
:100960000FBECDBF0E9407036D837E838F8380E31C
:100970005A3028F0852F6AE00E94530B805D8093E7
:100980000A013AE0852F632F0E94530B905D9093EC
:100990000B018EE280930C012D8180E32A3020F040
:1009A000822F0E94530B805D80930D01822F6AE09D
:1009B0000E94530B905D90930E018EE280930F0185
:1009C0002E813F81C90168EE73E00E945F0B605D7C
:1009D00060931001E4E6F0E0BF010E945F0B605DF0
:1009E00060931101C901BF010E945F0BEAE0F0E0D2
:1009F000BF010E945F0B605D60931201C901BF01DE
:100A00000E945F0B805D80931301109214018AE0B5
:100A100091E028960FB6F894DEBF0FBECDBFDF91F0
:100A2000CF910895CF93DF93EC0160E08E810E9417
:100A3000EB0161E08E810E94EB0160E08E810E94FB
:100A4000EB018BE891E00197F1F7DF91CF910895E9
:100A5000CF92DF92EF92FF920F931F93CF93DF938A
:100A60006C017C0187E0E80EF11CD0E0C0E0062FAD
:100A700010E0B8010C2E02C0759567950A94E2F754
:100A80006170F70181917F010E94EB012196C430D2
:100A9000D10579F7C601DF91CF911F910F91FF909A
:100AA000EF90DF90CF900C941205CF92DF92EF92EF
:100AB000FF920F931F93CF93DF93EC01F62E642FD9
:100AC0008C810E94EB018D818F3F19F060E00E94C4
:100AD000EB010F2D10E08F8584FF25C06E0187E0AC
:100AE000C80ED11CF12CE12CB8010E2C02C075955A
:100AF00067950A94E2F76170F60181916F010E9497
:100B0000EB01FFEFEF1AFF0A88E0E816F10461F746
:100B1000CE01DF91CF911F910F91FF90EF90DF9069
:100B2000CF900C941205B80184E0759567958A956D
:100B3000E1F7CE010E9428056F2DCE01DF91CF9104
:100B40001F910F91FF90EF90DF90CF900C942805AC
:100B500040E0682F8FE692E00C94550581E00E94FA
:100B6000A8058BE39FE10197F1F70895CF93DF93F9
:100B7000823029F490917E02986090937E02809357
:100B800082021092830280E48093840280E1809349
:100B9000850280E58093860261E0809173020E9465
:100BA0001902809174028F3F19F061E00E941902CE
:100BB00061E0809175020E941902CFE6D2E09E01A9
:100BC0002F56324080917E0284FD0BC084E090E07D
:100BD00021962817390744F461E08E810E9419029A
:100BE000EECF88E090E0F4CF8BE39DE00197F1F742
:100BF00060E0809173020E94EB0160E080917502D9
:100C00000E94EB01809174028F3F19F060E00E9416
:100C1000EB0180917E0284FD34C063E08FE692E0B8
:100C20000E942805CBE4D6E4CE010197F1F763E0FA
:100C30008FE692E00E9428052197F1F763E08FE6A6
:100C400092E00E94280583E592E00197F1F762E0C7
:100C50008FE692E00E94280580917E0280620E94C9
:100C6000A80584E080937F028CE00E94A8050E9482
:100C7000AE0582E08093800286E0DF91CF910C94F4
:100C8000A80580620E94A8058BE496E40197F1F71D
:100C900080917E0280620E94A80583E592E0019720
:100CA000F1F780917E0280620E94A805D5CF9091D5
:100CB0008202691710F06FEF690FE62FF0E0E1593B
:100CC000FD4F9489890F80680C94A80541E00E942B
:100CD000550581E090E00895FB0101900020E9F7BF
:100CE0003197AF01461B570BDC01ED91FC9102805F
:100CF000F381E02D09948F929F92AF92BF92CF9291
:100D0000DF92EF92FF92CF93DF93CDB7DEB7A1973B
:100D10000FB6F894DEBF0FBECDBF6C01990FEE0881
:100D2000FF08F7FE40C041E06DE28FE692E00E94CE
:100D3000550522273327A9012C193D094E095F09C2
:100D400019A2CE0181967C019AE0892E912CA12CCA
:100D5000B12CCA01B901A50194010E94950A605DF8
:100D6000F70162937F01211531054105510589F78E
:100D700090E080E0309729F0BF018FE692E00E947A
:100D80006C060196A1960FB6F894DEBF0FBECDBFDC
:100D9000DF91CF91FF90EF90DF90CF90BF90AF9019
:100DA0009F908F900895A701960119A2CE01819678
:100DB0007C018AE0882E912CA12CB12CCA01B901AA
:100DC000A50194010E94950A605DF70162937F017D
:100DD000211531054105510589F790E080E03097F4
:100DE00089F2BF018FE692E00E946C06CBCF0F9391
:100DF0001F93CF93DF938C01D0E0C0E061157105A4
:100E000019F00E946C06EC016AE471E0C8010E94CE
:100E10006C068C0F9D1FDF91CF911F910F9108954C
:100E20001F920F920FB60F9211242F933F934F935F
:100E30005F936F937F938F939F93AF93BF93EF9342
:100E4000FF9382ED91E00E940A01FF91EF91BF9123
:100E5000AF919F918F917F916F915F914F913F9152
:100E60002F910F900FBE0F901F9018951F920F9209
:100E70000FB60F9211242F938F939F93EF93FF93AD
:100E8000E091E201F091E3018081E091E801F091CD
:100E9000E90182FD1BC090818091EB018F5F8F7310
:100EA0002091EC01821741F0E091EB01F0E0EE526D
:100EB000FE4F958F8093EB01FF91EF919F918F9162
:100EC0002F910F900FBE0F901F9018958081F4CF37
:100ED0001F920F920FB60F9211242F933F938F936F
:100EE0009F93AF93BF938091B9019091BA01A09164
:100EF000BB01B091BC013091B80123E0230F2D3725
:100F000058F50196A11DB11D2093B8018093B90138
:100F10009093BA01A093BB01B093BC018091BD0135
:100F20009091BE01A091BF01B091C0010196A11D99
:100F3000B11D8093BD019093BE01A093BF01B093FA
:100F4000C001BF91AF919F918F913F912F910F90D1
:100F50000FBE0F901F90189526E8230F0296A11D33
:100F6000B11DD2CFE2EDF1E01382128288EE93E060
:100F7000A0E0B0E084839583A683B78380E391E00B
:100F80009183808385EC90E09587848784EC90E062
:100F90009787868780EC90E0918B808B81EC90E046
:100FA000938B828B82EC90E0958B848B86EC90E027
:100FB000978B868B118E128E138E148EE7E8F2E0DB
:100FC00082E1818383E18083EFE6F2E01382128283
:100FD00082E491E09183808388E084838FEF85832E
:100FE00087E0868386E0878385E0808784E0818749
:100FF00083E082871386148615861686178681E01D
:101000000C94B605CF93DF93CDB7DEB766970FB6D6
:10101000F894DEBF0FBECDBF789484B5826084BDE6
:1010200084B5816084BD85B5826085BD85B58160EC
:1010300085BD80916E00816080936E00109281006A
:101040008091810082608093810080918100816025
:1010500080938100809180008160809380008091E6
:10106000B10084608093B1008091B0008160809372
:10107000B00080917A00846080937A0080917A0039
:10108000826080937A0080917A00816080937A00F8
:1010900080917A00806880937A001092C10082E08B
:1010A0000E94B60580E40E94A80500E011E058E027
:1010B000E52E51E0F52EF80161918F018FE692E067
:1010C0000E946606E016F106B1F7E091E201F091A8
:1010D000E30182E08083E091DE01F091DF01108284
:1010E000E091E001F091E1018FEC80831092EA0140
:1010F000E091E601F091E70186E08083E091E40170
:10110000F091E501808180618083E091E401F091BC
:10111000E501808188608083E091E401F091E50140
:10112000808180688083E091E401F091E501808115
:101130008F7D808380918802823109F066C0809122
:101140008702833109F061C081E08093900261E001
:1011500082E10E94EB0161E083E10E94EB0180915A
:10116000B9008E7F8093B9008091B9008D7F809304
:10117000B9008CE08093B80085E08093BC0062E009
:1011800089E00E94190260E083E00E9457066DE446
:1011900071E08FE692E00E946C0661E085E00E94BB
:1011A000570669E571E08FE692E00E946C0660EDFB
:1011B00077E080E090E00E948F02812C40EC942E3A
:1011C00049E7A42E44ECB42E30E0232E30E0332E39
:1011D00089E00E94C201892B49F480910801909115
:1011E00009010196909309018093080180910801FB
:1011F000909109018130910581F0029709F480C036
:1012000010920901109208016FC01092900261E0E3
:10121000809187020E941902B2CF0E94AE058EE033
:10122000EEE1F1E0DE01119601900D928A95E1F771
:101230000E9407032F87388B498B5A8B6B8B7C8BD3
:101240008D8B9E8B292F2150330BF901EE0FFF1F41
:1012500081E090E08C0F9D1FE80FF91F6081718184
:1012600082ED91E00E94F7060E94A804BC0182ED85
:1012700091E00E94F70661E080E00E94570661E677
:1012800071E08FE692E00E946C0661E086E00E94C9
:1012900057060E94A804BC018FE692E00E94F70660
:1012A0000E945204BC0182ED91E00E94F70660E0CA
:1012B00080E00E94570667E671E08FE692E00E94A8
:1012C0006C0660E086E00E9457060E945204009778
:1012D00029F0BC018FE692E00E946C0668EE73E094
:1012E00080E090E00E948F022114310409F470CF55
:1012F0000E94F600882309F46BCF0E94000064CF9F
:10130000E0EBF0E00491ECE9F0E08491E82FF0E00C
:10131000EE0FFF1FE057FF4FE590F4901092CD01C4
:101320001092CE011092CF011092D0011092D101F3
:1013300061E082E00E94190260E082E00E94EB011D
:1013400062E170E080E090E00E948F0261E082E064
:101350000E94EB018BE990E00197F1F760E082E0F9
:101360000E94190280E991E0F7012081202399F47D
:101370000197D1F78092C5019092C601A092C70152
:10138000B092C8018092C9019092CA01A092CB018B
:10139000B092CC0162C080E991E0F7012081202366
:1013A00019F00197D1F7E6CF88E2D82E10E8C12CCA
:1013B00080E991E0F7012081202319F40197D1F70A
:1013C000D9CF0E946A022B013C0180E991E0F7012C
:1013D0002081202319F00197D1F7CCCF0E946A0217
:1013E00064197509860997096932710581059105A6
:1013F00038F0EC2DF0E0EB53FE4F8085812B808799
:10140000169511F4C39410E8DA94D110D1CF61E0AD
:1014100082E00E94190261E082E00E94EB0160918B
:10142000CD0170E090E080E00E94ED0A6093C5017C
:101430007093C6018093C7019093C8016091CF015A
:1014400070E090E080E00E94ED0A6093C901709323
:10145000CA018093CB019093CC016091C901709136
:10146000CA018091CB019091CC010E94B70A709380
:10147000C4016093C3016091C5017091C601809160
:10148000C7019091C8010E94B70A7093C20160938E
:10149000C1010E94AE0560E080E00E9457066DE643
:1014A00071E08FE692E00E946C0660E08AE00E94A4
:1014B00057068091C3019091C4010E947B0660E0B1
:1014C0008CE00E94570660E08FE692E00E9466067C
:1014D00060E08DE00E94570641E063E48FE692E011
:1014E0000E94550561E080E00E94570664E771E0C4
:1014F0008FE692E00E946C0661E08AE00E94570647
:101500008091C1019091C2010E947B0661E08CE054
:101510000E94570641E065E28FE692E00E94550581
:1015200064EF71E080E090E0DDCEA1E21A2EAA1B0C
:10153000BB1BFD010DC0AA1FBB1FEE1FFF1FA21783
:10154000B307E407F50720F0A21BB30BE40BF50B80
:10155000661F771F881F991F1A9469F76095709509
:10156000809590959B01AC01BD01CF0108950E942B
:10157000BE0A6894B1110C944D0B08950E94320B71
:1015800088F09F5798F0B92F9927B751B0F0E1F044
:10159000660F771F881F991F1AF0BA95C9F714C0F4
:1015A000B13091F00E944C0BB1E008950C944C0BBB
:1015B000672F782F8827B85F39F0B93FCCF386952D
:1015C00077956795B395D9F73EF49095809570958A
:1015D00061957F4F8F4F9F4F0895E89409C097FB07
:1015E0003EF490958095709561957F4F8F4F9F4FFA
:1015F0009923A9F0F92F96E9BB279395F69587953E
:1016000077956795B795F111F8CFFAF4BB0F11F400
:1016100060FF1BC06F5F7F4F8F4F9F4F16C08823A7
:1016200011F096E911C0772321F09EE8872F762FDD
:1016300005C0662371F096E8862F70E060E02AF01E
:101640009A95660F771F881FDAF7880F969587950A
:1016500097F9089557FD9058440F551F59F05F3F73
:1016600071F04795880F97FB991F61F09F3F79F0C4
:1016700087950895121613061406551FF2CF469546
:10168000F1DF08C0161617061806991FF1CF8695C8
:101690007105610508940895E894BB2766277727AC
:1016A000CB0197F90895991B79E004C0991F96170B
:1016B00008F0961B881F7A95C9F78095089597FBC7
:1016C000072E16F4009407D077FD09D00E94730B03
:1016D00007FC05D03EF4909581959F4F0895709535
:1016E00061957F4F0895AA1BBB1B51E107C0AA1F3C
:1016F000BB1FA617B70710F0A61BB70B881F991FB3
:101700005A95A9F780959095BC01CD010895EE0FEB
:0E171000FF1F0590F491E02D0994F894FFCF8F
:10171E000E0A0E00000000000100787878787878C4
:10172E0078787878007878787878787878007E018C
:10173E0085018D019701A001A701B00100000000F5
:10174E002C018C00B9007901EA00C800DC00000011
:10175E00000066068C00C302C2020D0A0054494DF9
:10176E004520262054454D50004D6F6E69746F72A2
:10177E0000446174653A0054696D653A0054656DB4
:10178E0070203A0048756D69646974793A004D6F3E
:10179E006E64617900547565736461790057656490
:1017AE006E65736461790054687572736461790053
:1017BE00467269646179005361747572646179006F
:0817CE0053756E64617900009F
:00000001FF
