:100000000C9469000C9426080C94FF070C94910042
:100010000C9491000C9491000C9491000C9491001C
:100020000C9491000C9491000C9491000C944D0848
:100030000C9491000C9491000C9491000C949100FC
:100040000C94B5070C9491000C9483070C945D07F5
:100050000C9491000C9491000C9491000C949100DC
:100060000C9491000C9491000000010008004000E5
:1000700000010004050D00000000240027002A00F4
:1000800000000000250028002B00000000002300D5
:1000900026002900040404040404040402020202E9
:1000A000020203030303030301020408102040803B
:1000B00001020408102001020408102000000008BA
:1000C000000201000003040700000000000000001F
:1000D000810911241FBECFEFD8E0DEBFCDBF11E0F4
:1000E000A0E0B1E0E6EDF8E102C005900D92A23982
:1000F000B107D9F723E0A2E9B1E001C01D92A7350D
:10010000B207E1F710E0C9E6D0E004C02197FE0194
:100110000E94550CC836D107C9F70E94030A0C94F7
:10012000690C0C940000FC01538D448D252F30E0A8
:10013000842F90E0821B930B541710F0CF960895F4
:1001400001970895FC01918D828D981761F0A28D21
:10015000AE0FBF2FB11D5D968C91928D9F5F9F73E7
:10016000928F90E008958FEF9FEF0895FC01918D9D
:10017000828D981731F0828DE80FF11D858D90E00A
:1001800008958FEF9FEF0895FC01918D228D892FA7
:1001900090E0805C9F4F821B91098F73992708958F
:1001A000FC01A48DA80FB92FB11DA35ABF4F2C91EC
:1001B000848D90E001968F739927848FA689B789E3
:1001C0002C93A089B1898C91837080648C93938DDA
:1001D000848D981306C00288F389E02D80818F7D7D
:1001E00080830895EF92FF920F931F93CF93DF9335
:1001F000EC0181E0888F9B8D8C8D98131AC0E88963
:10020000F989808185FF15C09FB7F894EE89FF8931
:100210006083E889F98980818370806480839FBFCF
:1002200081E090E0DF91CF911F910F91FF90EF90CF
:100230000895F62E0B8D10E00F5F1F4F0F731127DF
:10024000E02E8C8D8E110CC00FB607FCFACFE8891A
:10025000F989808185FFF5CFCE010E94D000F1CFD2
:10026000EB8DEC0FFD2FF11DE35AFF4FF0829FB78E
:10027000F8940B8FEA89FB8980818062CFCFCF937E
:10028000DF93EC01888D8823B9F0AA89BB89E889BE
:10029000F9898C9185FD03C0808186FD0DC00FB664
:1002A00007FCF7CF8C9185FFF2CF808185FFEDCFE2
:1002B000CE010E94D000E9CFDF91CF91089580EB6D
:1002C00091E00E94C40021E0892B09F420E0822FF4
:1002D000089580E090E0892B29F00E945F01811150
:1002E0000C9400000895AF92BF92CF92DF92EF92EC
:1002F000FF920F931F93CF93DF936C017B018B01D0
:10030000040F151FEB015E01AE18BF08C017D1071F
:1003100059F06991D601ED91FC910190F081E02DA9
:10032000C6010995892B79F7C501DF91CF911F91FE
:100330000F91FF90EF90DF90CF90BF90AF90089516
:10034000833081F028F4813099F08230A9F008954B
:100350008730A9F08830C9F08430B1F480918000F2
:100360008F7D03C0809180008F77809380000895F7
:1003700084B58F7784BD089584B58F7DFBCF809140
:10038000B0008F778093B00008958091B0008F7D8A
:10039000F9CFCF93DF93282F30E0F901E454FF4FDA
:1003A0008491F901E855FF4FD491F901EC56FF4FC4
:1003B000C491CC23A1F081110E94A001EC2FF0E0A8
:1003C000EE0FFF1FE657FF4FA591B491EC91ED237F
:1003D00081E090E009F480E0DF91CF91089580E022
:1003E00090E0FACF1F93CF93DF93282F30E0F901ED
:1003F000E454FF4F8491F901E855FF4FD491F9017E
:10040000EC56FF4FC491CC23A9F0162F81110E9406
:10041000A001EC2FF0E0EE0FFF1FE058FF4FA59179
:10042000B4918FB7F894EC91111108C0D095DE23E8
:10043000DC938FBFDF91CF911F910895DE2BF8CF12
:10044000CF93DF9390E0FC01E855FF4F24918C5649
:100450009F4FFC0184918823C9F090E0880F991F79
:10046000FC01EA58FF4FA591B491FC01E058FF4F01
:10047000C591D49161110DC09FB7F8948C912095CE
:1004800082238C938881282328839FBFDF91CF917B
:100490000895623051F49FB7F8943C91822F809573
:1004A00083238C93E8812E2BEFCF8FB7F894EC91B8
:1004B0002E2B2C938FBFEACF3FB7F89480919C01ED
:1004C00090919D01A0919E01B0919F0126B5A89B9E
:1004D00005C02F3F19F00196A11DB11D3FBFBA2FD6
:1004E000A92F982F8827BC01CD01620F711D811D96
:1004F000911D42E0660F771F881F991F4A95D1F71B
:1005000008958F929F92AF92BF92CF92DF92EF9217
:10051000FF926B017C010E945C024B015C01C114E3
:10052000D104E104F104B9F00E945C026819790970
:100530008A099B09683E73408105910580F321E09B
:10054000C21AD108E108F10888EE880E83E0981EEF
:10055000A11CB11CE4CFFF90EF90DF90CF90BF9033
:10056000AF909F908F9008952FB7F8946091980165
:100570007091990180919A0190919B012FBF0895EC
:1005800008958CE30895CF93DF93FC01228133819A
:100590002230310569F0EC01678D858D0E94F201F2
:1005A00060E08C8D0E94F20182E090E09B838A8360
:1005B000DF91CF91089581E008950895809194018D
:1005C000882361F09FB7F894209194018091930162
:1005D000213019F48DBB9FBF08958FBF0895FC0192
:1005E0002085918580919401882361F08FB7F894DC
:1005F00030919401313049F43DB3309393013DB3D0
:100600003DBB8FBF2CBD9DBD089580939301FACF54
:100610009FB7F89480919201882319F081508093BC
:10062000920180919201811105C08CB58F7B8CBDA8
:10063000109294019FBF08958CB58F778CBD08955B
:100640008CB580688CBD08956EBD00000DB407FEAA
:10065000FDCF8EB50895FC01738362830895FC017C
:10066000778366830895FC017583648308950895F4
:100670000895FC01848995890895FC0182899389F4
:100680000895FC0180899189089580E00895FC0116
:1006900081850895FC0180850895FC018781089576
:1006A000FC01868108954095FC0125854223642B39
:1006B00065870895FC0164870895FC0163870895A8
:1006C000FC0162870895FC0164830895FC01658341
:1006D00008958F929F92AF92BF92CF92DF92EF9246
:1006E000FF92CF93DF93EC016B010E94B4024B01A8
:1006F0005C01F12CE12C0E94B402681979098A0985
:100700009B096C157D058E059F0580F48A819B8170
:10071000039789F381E0DF91CF91FF90EF90DF9015
:10072000CF90BF90AF909F908F90089580E0F3CFCF
:10073000FC012281338123303105D1F381E008951A
:100740008F929F92AF92BF92CF92DF92EF92FF92E1
:10075000CF93DF93EC016B010E94B4024B015C016B
:10076000F12CE12C0E94B402681979098A099B09CD
:100770006C157D058E059F05A0F4E881F981028046
:10078000F381E02DCE010995882361F3DF91CF91AC
:10079000FF90EF90DF90CF90BF90AF909F908F90A1
:1007A000089580E0F3CFCF93DF93EC01E881F981E6
:1007B0000280F381E02DCE0109958823B9F3DF9102
:1007C000CF910895862720E1829FB00111248627CA
:1007D000482F50E0292F382FCA0164E0959587955E
:1007E0006A95E1F728273927CA0173E0880F991F16
:1007F0007A95E1F78227932708956F927F928F92DF
:100800009F92AF92BF92CF92DF92EF92FF920F939F
:100810001F93CF93DF934D3388F0712C872DDF9199
:10082000CF911F910F91FF90EF90DF90CF90BF90ED
:10083000AF909F908F907F906F900895042F5B01F1
:10084000EC01E881F9810484F585E02D0995E881C2
:10085000F9810288F389E02DCE010995782E88234D
:10086000E1F27E0129E7E20EF11C17E0100F612F83
:100870008FEF9FEF0E94E203E12FF0E064E0F59537
:10088000E7956A95E1F7E05FFE4F2081F70120834D
:100890001F70E12FF0E0E05FFE4F2081FE01E6587F
:1008A000FF4F20831A85612F0E94E203E12FF0E0C1
:1008B00074E0F595E7957A95E1F7E05FFE4F2081CA
:1008C000FE01E558FF4F20831F70E12FF0E0E05F4D
:1008D000FE4F2081FE01E458FF4F20831B85612FCE
:1008E0000E94E203E12FF0E0A4E0F595E795AA95D8
:1008F000E1F7E05FFE4F2081FE01E358FF4F2083C8
:100900001F70E12FF0E0E05FFE4F2081FE01E25812
:10091000FF4F20831C85612F0E94E203E12FF0E04E
:10092000B4E0F595E795BA95E1F7E05FFE4F2081D9
:10093000FE01E158FF4F20831F70E12FF0E0E05FE0
:10094000FE4F2081FE01E058FF4F20831D85612F5F
:100950000E94E203E12FF0E024E0F595E7952A9567
:10096000E1F7E05FFE4F2081FE01EF57FF4F20834C
:100970001F70E12FF0E0E05FFE4F2081FE01EE5797
:10098000FF4F20836501470110E0A00EB11EF2E089
:100990008F0E911CCA14DB04E9F0F60161906F011F
:1009A000662D0E94E203E62DF0E054E0F595E79510
:1009B0005A95E1F7E05FFE4F2081F4012087F601B0
:1009C0003197E081EF70F0E0E05FFE4F2081F401AD
:1009D0002187DDCF98012B5F3F4F220F331F80957A
:1009E0009095D701A20FB31FFC0154E0F695E7954F
:1009F0005A95E1F7EF70FF27E05FFE4F30813C939F
:100A0000F801EE0FFF1FBF016E0D7F1DAC014F708F
:100A10005527405F5E4FFA013081FB0133870A5F43
:100A20001F4F000F111F0E0D1F1DFC01EF2FFF2781
:100A3000E295EF70E05FFE4F3081F8013083E92FDF
:100A4000FF27EF70FF27E05FFE4F808113968C93A6
:100A5000FE01E150FF4F245F20838A819B81039731
:100A600009F4DCCEE159F1091082319610823196F9
:100A700010826F8D81E068278D8D0E94F20183E0E6
:100A800090E09B838A83CACEEF92FF921F93CF930D
:100A9000DF93FC01228133812330310509F452C0F8
:100AA000EC0182819381049761F0678D858D0E94AE
:100AB000F20160E08C8D0E94F20184E090E09B8363
:100AC0008A8388A18823E9F010E08FEF9FEF7E01F1
:100AD000FDE6EF0EF11CF7012081121740F4FE0134
:100AE000E10FF11D61A50E94E2031F5FF4CF883B77
:100AF000904F71F0888999890196998B888B19A2FA
:100B000018A289A1DF91CF911F91FF90EF900895D6
:100B10008AA58E838BA58F838CA588878DA58987D1
:100B20008D81811107C09E818C81981719F08E816B
:100B30008F3F31F78A899B8901969B8B8A8B81E055
:100B400089A3DECF80E0DECF0E945B0CDF92EF92C4
:100B5000FF920F931F93CF93DF93EC017B018A01E8
:100B6000E881F9810280F381E02D0995D82E882350
:100B7000D1F0E114F104B1F00115110599F0FE0175
:100B8000E359FF4F80818750F8019081891708F45D
:100B90008083F801408150E0BE01625D7F4FC70154
:100BA0000E94600C19A28D2DDF91CF911F910F91A2
:100BB000FF90EF90DF9008954F925F926F927F9237
:100BC000AF92BF92CF92DF92EF92FF921F93CF939B
:100BD000DF9300D0CDB7DEB77C0190939601809370
:100BE000950161E0FC01848D0E94200260E0F70124
:100BF000838D0E94200261E0F701858D0E94200212
:100C0000C7010E94C302F701C18CD28CC114D10468
:100C100009F444C0F12CE12C83E0CC0CDD1CEE1C6B
:100C2000FF1C8A95D1F79AE6A92E90E0B92E11E023
:100C3000412C24E2522E24EF622E712C42E050E02F
:100C4000B501CE0101960E94E90B29813A8150E05D
:100C500040E0C301B2010E94240CCA01B901A701FE
:100C600096010E94240CDA01C9010297A109B10979
:100C70008D3F9F4FA105B10510F11F5F62E0A60EE9
:100C8000B11C1730D9F6223031054105510530F03D
:100C90002115310581E04807510598F081E00F905A
:100CA0000F90DF91CF911F91FF90EF90DF90CF9049
:100CB000BF90AF907F906F905F904F9008951630E7
:100CC00069F31092800088E0809381008091810018
:100CD000182B109381003093890020938800809115
:100CE0006F00826080936F00D9CF0F931F93CF93D3
:100CF000FC018281938140E054E264EF70E0843033
:100D00009105C1F040E052E16AE770E0833091055F
:100D100089F040E059E06DE370E08230910551F0D8
:100D200040E452E46FE070E0019721F440E854E8B9
:100D30006EE170E0A481B58186819781009709F406
:100D400066C08130910509F45EC08230910509F4D6
:100D50005CC0039709F05BC08CE000E012E12AE779
:100D600030E090E0401751076207730740F4369572
:100D70002795179507959F5F9630A1F797E021E09B
:100D8000292730E5119709F430E72695282B232BE6
:100D90002087909591709187CFB7F89480919201B8
:100DA000811127C0EEE9F0E08491E2EBF0E094914C
:100DB000E82FF0E0EE0FFF1FEA58FF4FA591B49126
:100DC000EC91E92321F461E08AE00E94F20161E004
:100DD0008AE00E9420028CB580618CBD8CB5806455
:100DE0008CBD61E08DE00E94200261E08BE00E94FA
:100DF0002002809192018F5F80939201CFBFCF91AB
:100E00001F910F91089584E0A8CF88E0A6CF80E0DD
:100E1000A4CF8F929F92AF92BF92CF92DF92EF9228
:100E2000FF92CF93DF93FC012789308D232BB9F1FB
:100E3000EC010E94B4024B015C0189E0C82ED12C68
:100E4000E12CF12CE881F9810488F589E02DCE01AF
:100E50000995882321F10E94B402AB01BC01481915
:100E600059096A097B098F89988DB0E0A0E0841741
:100E70009507A607B707F8F00E94910BA701960106
:100E80000E94F20B9B01AC012F5F3F4F4F4F5F4F12
:100E9000A4E6B0E00E94110C0E948102D3CF81E051
:100EA000DF91CF91FF90EF90DF90CF90BF90AF9008
:100EB0009F908F90089580E0F3CF1F920F920FB60E
:100EC0000F9211242F933F934F935F936F937F93D0
:100ED0008F939F93AF93BF93EF93FF9380EB91E03A
:100EE0000E94D000FF91EF91BF91AF919F918F91A0
:100EF0007F916F915F914F913F912F910F900FBE16
:100F00000F901F9018951F920F920FB60F921124F9
:100F10002F938F939F93EF93FF93E091C001F091F4
:100F2000C1018081E091C601F091C70182FD1BC023
:100F300090818091C9018F5F8F732091CA018217C0
:100F400041F0E091C901F0E0E055FE4F958F8093AC
:100F5000C901FF91EF919F918F912F910F900FBE3B
:100F60000F901F9018958081F4CF1F920F920FB6AB
:100F70000F9211242F933F938F939F93AF93BF931F
:100F80008091980190919901A0919A01B0919B0153
:100F90003091970123E0230F2D3758F50196A11DBD
:100FA000B11D209397018093980190939901A0938C
:100FB0009A01B0939B0180919C0190919D01A09119
:100FC0009E01B0919F010196A11DB11D80939C01CE
:100FD00090939D01A0939E01B0939F01BF91AF910B
:100FE0009F918F913F912F910F900FBE0F901F9067
:100FF000189526E8230F0296A11DB11DD2CF1F928E
:101000000F920FB60F9211242F933F934F935F933C
:101010006F937F938F939F93AF93BF93EF93FF93C0
:10102000E0910201F09103010995FF91EF91BF91C9
:10103000AF919F918F917F916F915F914F913F9170
:101040002F910F900FBE0F901F9018951F920F9227
:101050000FB60F9211242F933F934F935F936F938B
:101060007F938F939F93AF93BF93EF93FF93E09101
:101070000001F09101010995FF91EF91BF91AF91AE
:101080009F918F917F916F915F914F913F912F91A0
:101090000F900FBE0F901F9018951F920F920FB6D2
:1010A0000F921124CF92DF92EF92FF920F931F9332
:1010B0002F933F934F935F936F937F938F939F9360
:1010C000AF93BF93CF93DF93EF93FF93C0919501BD
:1010D000D09196018A819B81049709F0C7C08B8DBE
:1010E0000E94C90121E0892B09F420E08E8D922F06
:1010F0009827281719F08BA18F5F8BA38AA18917D6
:10110000F1F18CA12DE1803508F42BE08CA1820F48
:101110008CA39AA38CA1803A08F46DC08EA19FA1E4
:10112000969587959FA38EA38BA1853028F08EA1DD
:101130009FA198609FA38EA38CA1805A8CA31BA211
:101140008DA1882309F486C088A58F5F88A78C307D
:1011500008F451C08EA19FA1982F9F73892F869567
:101160008695887028E0280F821769F0E82FF0E054
:10117000E05FFE4F3081931739F08F5FF5CF8CA180
:101180008C5E8CA3C7CF80E090E1899F90011124F1
:101190008EA19FA136E0969587953A95E1F7482F65
:1011A0009595879595958795887098E0980F9817ED
:1011B00049F0E82FF0E0E05FFE4F5081451719F04D
:1011C0008F5FF5CF80E0822BDE01A359BF4F9C914A
:1011D000AE0144595F4F911127C0FA01808390817D
:1011E000973018F090819434F8F01DA2888999897D
:1011F0000196998B888BFF91EF91DF91CF91BF91F1
:10120000AF919F918F917F916F915F914F913F919E
:101210002F911F910F91FF90EF90DF90CF900F9043
:101220000FBE0F901F9018952C9191E0920F9C93F8
:101230002C0F3D2F311DF90181A79C91DA018C9172
:10124000981730F01DA281E088A3CE010E94C3024E
:1012500018A6D1CF8EA19FA188339B4061F681E073
:101260008DA318A6C359DF4F1882C5CF8A819B81F1
:10127000039709F68E0100591F4FF801808191E014
:10128000980F9083811113C06E01FEE6CF0ED11C22
:10129000D601EC91AF56BF4F8C91E81778F0CE0194
:1012A0000E94C3028C899D8901969D8B8C8BD801ED
:1012B0008C91883008F49FCF1C929DCFEC0FFD2FAE
:1012C000F11DEF58FF4F608170E07E01BFE6EB0E2D
:1012D000F11CF701808191E0980F908302C0759511
:1012E00067958A95E2F761708C8D0E94F201D701B3
:1012F0008C918630E0F21C92F60180818F5F8083B2
:10130000D6CFCF93DF93CDB7DEB728970FB6F8943B
:10131000DEBF0FBECDBFE0EBF1E01382128288EE9C
:1013200093E0A0E0B0E084839583A683B78384E252
:1013300091E09183808385EC90E09587848784ECAD
:1013400090E09787868780EC90E0918B808B81EC92
:1013500090E0938B828B82EC90E0958B848B86EC73
:1013600090E0978B868B118E128E138E148EEDE487
:10137000F2E013821282158214821782168286E3AB
:1013800091E09183808380E580871186E7E5F2E034
:10139000138212828FEF8483828783871486158657
:1013A000118A108A138A128A158A148A108E178A53
:1013B00080E591E09183808380ED97E0928F818F2B
:1013C0008BE0838F8CE0848F8AE0858F168E178E5A
:1013D00088E0E8E0F1E0DE01119601900D928A9537
:1013E000E1F788E0FE013196A8ECB2E001900D92A1
:1013F0008A95E1F728960FB6F894DEBF0FBECDBFF1
:10140000DF91CF910895789484B5826084BD84B5CE
:10141000816084BD85B5826085BD85B5816085BDEF
:1014200080916E00816080936E00109281008091A7
:10143000810082608093810080918100816080932F
:101440008100809180008160809380008091B10054
:1014500084608093B1008091B00081608093B0007F
:1014600080917A00846080937A0080917A00826013
:1014700080937A0080917A00816080937A008091D5
:101480007A00806880937A001092C10087E592E02C
:101490000E94DC0562E082E00E94200262E083E0BC
:1014A0000E94200262E084E00E94200262E085E067
:1014B0000E94200200E010E0C1E0D0E082E00E9443
:1014C000C9017C019093AF018093AE0183E00E943B
:1014D000C9019093AD018093AC0184E00E94C901E1
:1014E0009093AB018093AA0185E00E94C90190937B
:1014F000A9018093A801EF28B1F48091A0019091F7
:10150000A101009709F075C041E062E871E087E54C
:1015100092E00E94FD0387E592E00E949803D09339
:10152000A101C093A0018091AC019091AD01892BE4
:10153000B1F48091A2019091A301009709F06CC0D1
:1015400041E066E871E087E592E00E94FD0387E5EF
:1015500092E00E949803D093A301C093A2018091CE
:10156000AA019091AB01892BB1F48091A4019091D3
:10157000A501009709F063C041E06AE871E087E5E2
:1015800092E00E94FD0387E592E00E949803D093C9
:10159000A501C093A4018091A8019091A901892B74
:1015A000B1F48091A6019091A701009709F05AC06B
:1015B00041E06EE871E087E592E00E94FD0387E577
:1015C00092E00E949803D093A701C093A60164E61D
:1015D00070E080E090E00E9481020115110509F49D
:1015E0006DCF0E945F01882309F468CF0E9400003C
:1015F00065CF019709F097CF41E064E871E087E596
:1016000092E00E94FD0387E592E00E949803109209
:10161000A1011092A00187CF019709F0A0CF41E06E
:1016200068E871E087E592E00E94FD0387E592E0BB
:101630000E9498031092A3011092A20190CF0197EB
:1016400009F0A9CF41E06CE871E087E592E00E94E3
:10165000FD0387E592E00E9498031092A501109285
:10166000A40199CF019709F0B2CF41E060E971E0A0
:1016700087E592E00E94FD0387E592E00E949803CF
:101680001092A7011092A601A2CF8F929F92AF92C3
:10169000BF92CF92DF92EF92FF92CF93DF93EC0154
:1016A000688179818A819B81611571058105910528
:1016B00021F464E279ED8BE597E02DE133EF41E031
:1016C00050E00E94F20B49015A019B01AC01A7EACC
:1016D000B1E40E94110C6B017C01ACEEB4EFA501EA
:1016E00094010E941F0CC60ED71EE81EF91EF7FEBD
:1016F00006C081E0C81AD108E10880E8F80AC8826B
:10170000D982EA82FB82C701B6019F77DF91CF9130
:10171000FF90EF90DF90CF90BF90AF909F908F9011
:1017200008958F929F92AF92BF92CF92DF92EF92E5
:10173000FF926091040170910501809106019091E2
:101740000701611571058105910521F464E279EDC8
:101750008BE597E02DE133EF41E050E00E94F20B82
:1017600049015A019B01AC01A7EAB1E40E94110CA6
:101770006B017C01ACEEB4EFA50194010E941F0C3B
:10178000C60ED71EE81EF91EF7FE06C081E0C81A75
:10179000D108E10880E8F80AC0920401D09205015E
:1017A000E0920601F0920701C701B6019F77FF9012
:1017B000EF90DF90CF90BF90AF909F908F90089563
:1017C00060930401709305018093060190930701D3
:1017D0000895FB01DC0102C005900D92415050407C
:1017E000D8F70895052E97FB1EF400940E94090C6B
:1017F00057FD07D00E94240C07FC03D04EF40C9434
:10180000090C50954095309521953F4F4F4F5F4FB4
:10181000089590958095709561957F4F8F4F9F4F5C
:1018200008950E94460CA59F900DB49F900DA49F13
:10183000800D911D11240895B7FF0C94110C0E9486
:10184000110C821B930B0895A1E21A2EAA1BBB1B3D
:10185000FD010DC0AA1FBB1FEE1FFF1FA217B3077C
:10186000E407F50720F0A21BB30BE40BF50B661F92
:10187000771F881F991F1A9469F760957095809556
:1018800090959B01AC01BD01CF010895A29FB001CD
:10189000B39FC001A39F700D811D1124911DB29FA4
:1018A000700D811D1124911D0895EE0FFF1F0590ED
:1018B000F491E02D099481E090E0F8940C94690C87
:1018C000FB01DC0102C001900D9241505040D8F75D
:0618D0000895F894FFCF1B
:1018D600C002C002010000002A2A2A2A2A2A382C1D
:1018E6000D0E131516191A1C232526292A2C3234F7
:1018F60000000000F200730193003F01C400A20043
:10190600B60000000000240320031C03750608032C
:1019160033032F032B03EF02DE02DD02000000007B
:10192600DC054405A605FD03C102D303980369033C
:10193600A00309074503630360035D035A035303CA
:10194600660350034D034A034703450341033D0322
:101956003903410061004200620043006300440015
:0219660064001B
:00000001FF
